:020000040800F2
:100000007007002001010008833300081127000851
:1000100081330008B50A0008B1380008000000006C
:10002000000000000000000000000000873300080E
:10003000B70A000800000000853300088933000873
:100040001B0100081B0100081B0100081B01000820
:100050001B0100081B0100081B0100081B01000810
:100060001B0100081B0100081B0100081B01000800
:100070001B0100081B0100081B0100081B010008F0
:100080001B0100081B0100081B0100081B010008E0
:100090001B0100081B0100081B0100081B010008D0
:1000A0001B0100081B0100081B0100081B010008C0
:1000B0001B010008ED3300081B0100081B010008AC
:1000C0001B0100081B0100081B0100081B010008A0
:1000D0001B01000899380008A53800081B0100081A
:1000E0001B0100081B0100081B010008DFF80CD0F1
:1000F00000F0CEFC004800475D4700087007002074
:100100000648804706480047FEE7FEE7FEE7FEE7B1
:10011000FEE7FEE7FEE7FEE7FEE7FEE7EB3300085B
:10012000ED0000082DE9F05F0546002092469B4651
:1001300088460646814640241BE0284641464746FD
:10014000224600F02FF853465A46C01A914110D368
:1001500011461846224600F016F82D1A67EB0108E2
:100160004F4622460120002100F00DF817EB000950
:100170004E41201EA4F10104DFDC484631462A46E8
:100180004346BDE8F09F202A04DB203A00FA02F142
:10019000002070479140C2F1200320FA03F3194375
:1001A00090407047202A04DB203A21FA02F0002117
:1001B000704721FA02F3D040C2F120029140084377
:1001C00019467047202A06DBCB17203A41FA02F085
:1001D00043EAE07306E041FA02F3D040C2F12002A4
:1001E0009140084319467047D2B201E000F8012B54
:1001F000491EFBD270470022F6E710B513460A46A7
:1002000004461946FFF7F0FF204610BD421C10F8C7
:10021000011B0029FBD1801A7047F0B480EA01026B
:10022000D40F4200B2EB410F02D2024608461146FB
:100230004A0042D0C30DDDB2C1F3C752AD1A202D22
:1002400035DAC1F3160141F4000204B15242C5F19E
:10025000200602FA06F12A411044B3EBD05F23D006
:10026000C4B1012DA0EBC35009DCF0BC4FF000423B
:1002700002EAC352DBB200F5000000F014BB4000FC
:1002800000F1807000EBC350A0F1807040EAD170A3
:10029000490009E0490841EAC071A0EBC35000F5EC
:1002A0000000400800EBC350F0BC00F0F3BA61421C
:1002B000012202EB4101001BF6E7F0BC704781F020
:1002C0000041AAE780F00040A7E780EA010210B5EC
:1002D00002F00043400022D04A001FD0010E01EB83
:1002E0001261C0F35600C2F3560240F4000042F41B
:1002F0000002A0FB022000047F39140400D0401C3F
:1003000050EA124001D44000491EC2B20C0604EB70
:10031000D010401C4008802A02D003E0002010BD0D
:1003200020F00100002900DA0020184310BD30B48D
:1003300080EA010202F0004530F0004221F0004066
:1003400013D090B1C30DD40DC2F31601C0F3160043
:10035000E41A41F4000140F400027D34914201D3DB
:10036000641C00E04900002C02DA30BC0020704719
:100370004FF400000023914201D3891A034340083F
:100380004FEA4101F7D151B1914202D14FF0004102
:1003900005E002D24FF0010101E06FF0010103EB33
:1003A000C450284430BC00F075BA2DE9FE4F804699
:1003B00081EA0300C00F0C46009021F0004123F0B9
:1003C0000045B8EB0200A94105D2404621469046BF
:1003D0001C460B46024623F00040104347D0270D31
:1003E000C7F30A00C3F30A510290401A0190402853
:1003F0006BDAC3F3130040F4801B0098924620B1DF
:100400000023D2EB030A63EB0B0B01985946C0F1B2
:1004100040025046FFF7B7FE06460D465046594685
:10042000019AFFF7CFFE10EB08006141002487EA34
:10043000115284EAE7731A4340D0009A62B3019ADA
:10044000012A4FEA075215DC001B61EB02014FF055
:10045000004202EA0752CDE90042001C41F580113A
:1004600032462B4600F05CFA03B0BDE8F08F404600
:100470002146F9E7001B61EB0201001C41F58013E6
:1004800000185B412018A2F5001747EB030140EA72
:10049000D570B6196D4111E06D084FEA360645EA90
:1004A000C0754FEA0752001B61EB0201001C41F5C9
:1004B000801149084FEA30000019514132462B465D
:1004C00003B0BDE8F04F00F01CBA009801224000D4
:1004D0000023D0EB020263EBE073009821464FEA61
:1004E000E074B8EB000061EB0401E9E783F000433E
:1004F0005BE781F0004158E72DE9FE4F81EA0304F4
:1005000004F0004421F0004100944FF0000B23F070
:10051000004350EA01045ED052EA03045BD0C3F307
:100520000A54C1F30A552C44A4F2F3340194A0FBFD
:100530000254C1F3130141F48011C3F3130343F4D4
:10054000801301FB024400FB034E840A970A44EA2D
:10055000815447EA8357A4FB076802958D0A05FB7F
:1005600007854FEA932C04FB0C542705029D4FEAA4
:10057000065847EA1637B5EB08056EEB070C870EF1
:10058000920E47EA811742EA8312A7FB0201B6EBFB
:100590000B0164EB00042B0D43EA0C335E1844EBB3
:1005A0001C50DA465146E7FB0201C5F313044FEA3B
:1005B0000B3343EA14534FEA0432019C43EA060327
:1005C000A4F10C040294009CCDE900B400F0A8F959
:1005D00003B0BDE8F08F00200146F9E72DE9F04DAA
:1005E00081EA030404F0004B21F0004514464FF06B
:1005F000000A23F0004150EA050220D054EA01022B
:100600001DD0C5F30A570246C5F31303C1F3130007
:10061000C1F30A5640F4801543F48013A7EB060893
:10062000101BD64608F2FD3873EB050002D308F123
:10063000010801E092185B41B8F1000F03DA0020D5
:100640000146BDE8F08D00204FF480110646844637
:100650000EE0171B73EB050705D3121B63EB0503B5
:1006600006434CEA010C49084FEA300092185B41FE
:1006700050EA0107EDD152EA030012D082EA0400E9
:1006800083EA0501084305D0101BAB4106D20122C5
:10069000002306E000224FF0004302E06FF0010269
:1006A00053101AEB06004CEB085110EB0A0041EB1B
:1006B0000B01BDE8F04D00F024B970B521F0004306
:1006C00003430CD0C1F30A550024D5EB040564EBB9
:1006D0000403D617AD1AB34102DB0020014670BDFA
:1006E000201841EB025170BDC10F80EAE070084450
:1006F000CA079623002100F0D6B80EB5C10F80EAD4
:10070000E0700844CA07002140F233438DE80E0030
:100710000A460B4600F004F903B000BD0EB540F2E6
:10072000334102910021CDE900110A460B4600F049
:10073000F7F803B000BD00F0004220F00040C10D0A
:10074000C0F3160040F400007F2901DA0020704752
:10075000962903DCC1F19601C84001E09639884032
:10076000002AF4D04042704770B5C1F30A5201F03C
:1007700000450024C1F3130140F2FF3341F480111E
:100780009A4201DA002070BD40F233439A42A2F24D
:10079000334203DC5242FFF705FD00E090402C435A
:1007A000F1D0404270BD000030B5041E71F100046C
:1007B00004DB4FF00044404264EB0101141E73F16E
:1007C000000405DB1C464FF00043524263EB040378
:1007D0008B4208BF824230BD30B5041E71F1000467
:1007E00004DB4FF00044404264EB0101141E73F13E
:1007F000000405DB1C464FF00043524263EB040348
:10080000994208BF904230BD01F0004330B421F05E
:10081000004150EA010206D00A0DA2F56072C1F350
:100820001301002A02DC30BC00207047440F44EA68
:10083000C104C100E01830BC00EBC25000F02AB87F
:10084000002801DBC0F10040002901DBC1F10041BB
:1008500081427047002801DBC0F10040002901DB24
:10086000C1F100418842704730B50B460146002077
:100870002022012409E021FA02F59D4205D303FA62
:1008800002F5491B04FA02F52844151EA2F10102E3
:10089000F1DC30BD0029A8BF7047401C490008BFEB
:1008A00020F00100704710B4B0FA80FC00FA0CF0A0
:1008B00050EA010404BF10BC704749B1CCF12004D8
:1008C00021FA04F411FA0CF118BF01212143084365
:1008D000A3EB0C01CB1D4FEA00614FEA102042BF91
:1008E000002010BC704700EBC35010440029A4BF87
:1008F00010BC7047401C490008BF20F0010010BC2C
:10090000704710B5141E73F1000408DA401C41F161
:10091000000192185B411A4301D120F0010010BD83
:100920002DE9F04D92469B4611B1B1FA81F202E0F9
:10093000B0FA80F220329046FFF725FC04460F46BD
:1009400040EA0A0041EA0B0153465A46084313D0D5
:10095000114653EA010019D0C8F140025046FFF792
:1009600021FC05460E46504659464246FFF70BFC11
:10097000084305D0012004E020463946BDE8F08D4B
:100980000020054346EAE0762C4337430A98630586
:10099000E40AA0EB08000022FD0A44EA47540A30AA
:1009A00002D500200146E9E7010510196941DDE99A
:1009B000084500196941BDE8F04DA2E72DE9F04D69
:1009C00000231A461B1A8A4103DB00200146BDE8BA
:1009D000F08DC1F30A52C1F3130141F480154FF0B9
:1009E000000BD10702D100186D41521E00270446AA
:1009F00040F2FF11384601EB620A3E46804602464D
:100A000000204FF48011FFF7CDFBC2197141BB18D4
:100A100046EB0100B4EB030C75EB000C04D3E41AB5
:100A200065EB000517460E46241908F101006D41DB
:100A300080463428E3DDF91946EB0600091BA8417E
:100A400003D24FF0FF32134601E0002213461BEBA6
:100A5000070046EB0A51BDE8F04DFFF752BFC1F366
:100A60000A52C1F3130140F2FF3341F480119A425C
:100A700002DA00200146704740F233439A42A2F264
:100A8000334202DC5242FFF78DBBFFF77CBB000014
:100A9000064C074D06E0E06840F0010394E80700CB
:100AA00098471034AC42F6D3FFF724FBF84800080F
:100AB00018490008FEE7704772B6FEE700210228D9
:100AC00007D0042804D104480268506A516200B279
:100AD00070470248F8E700009C0200200C0200204A
:100AE00010B590F821100022022905D0042181635D
:100AF00080F82020012010BD01680B6823F00E0350
:100B00000B6001680B6823F001030B6090F8403024
:100B1000C46B012101FA03F3636080F8211080F8AF
:100B20002020104610BD000010B590F821100024C0
:100B3000022903D00421816301243DE001680A6891
:100B400022F00E020A6001680A6822F001020A60BF
:100B50001A4A0168914201D1012121E0174A143259
:100B6000914201D110211BE0144A2832914201D157
:100B7000891515E0114A3C32914201D189140FE0E8
:100B80000E4A5032914202D14FF4803108E00B4AB4
:100B90006432914202D14FF4801101E04FF0807134
:100BA000064A083A5160012180F82110002180F89E
:100BB0002010416B01B18847204610BD080002405B
:100BC0002DE9F84FDFF8B891002409F1040A0AF181
:100BD000040B23460F270BF1040EC9E00125A540A5
:100BE0002A40AA427DD1674ED1F804C0ACEB06087A
:100BF000B44532D014DCBCF1030F3AD009DCBCF1AF
:100C0000000F2AD0BCF1010F1CD0BCF1020F31D172
:100C10001DE0BCF1110F17D0BCF1120F2AD119E061
:100C2000B8F5881F19D006DCB8F5803F15D0B8F5A7
:100C3000801F1FD111E0B8F5001F0ED0B8F5041FBA
:100C400018D10AE0CB6815E0CB681B1D12E0CB6819
:100C500008330FE0CB680C330CE08B682BB1012B11
:100C60004FF0080303D0456104E0042302E005616E
:100C700000E00023FF2A01D8064601E000F1040647
:100C80004FEA840501D9A5F12005D6F8008007FABE
:100C900005FC28EA0C0803FA05F548EA0508C6F839
:100CA00000804D68ED0062D5374DAE6946F0010613
:100CB000AE61AD6924F0030605F001050095334DE2
:100CC00006EB050CDCF80850A607360F07FA06F805
:100CD00025EA0805DFF8B880404503D14FF0000849
:100CE00017E044E0DFF8AC80404502D14FF0010846
:100CF0000FE0DFF8A480404502D14FF0020808E081
:100D0000DFF89880404502D14FF0030801E04FF032
:100D1000040808FA06F848EA0508CCF808804D6887
:100D2000D9F80060ED034D4601D5164300E0964327
:100D30002E604D68DAF80060AD03554601D51643C4
:100D400000E096432E604D68DBF80060ED025D46E2
:100D500001D5164300E096432E604D68DEF8006032
:100D6000AD02754601D5164300E096432E60641C23
:100D70000D682A46E5407FF431AFBDE8F88F0000EA
:100D8000000401400000111000100240000001406A
:100D900000080140000C0140001001400014014017
:100DA0000AB1016170470904FBE70000014880684F
:100DB000704700002400002070B5040025D094F88E
:100DC0003D00002520B984F83C50204600F078FA18
:100DD000242084F83D002068016821F001010160B1
:100DE0002068016841F4004101602068016821F435
:100DF0000041016000F0C2FB4D4A6168914201D898
:100E00004C4900E04C49884201D2012070BD4B4959
:100E10002368B0FBF1F15E6826F03F060E435E608A
:100E20006368934206D94FF4967359434FF47A732B
:100E3000B1FBF3F12368491C1E6A26F03F063143DB
:100E400019626168914210D84900401EB0FBF1F26E
:100E5000521CC2F30B02042A01D2042022E0B0FB90
:100E6000F1F0401CC0F30B001CE0A268F2B301EBF0
:100E7000C10303EB0116431EB3FBF6F35B1C43F403
:100E800080431B0549D092B301EBC10202EB011173
:100E9000401EB0FBF1F0401CC0F30B0040F480405A
:100EA00040F400402168CA694CF6FF739A4310432E
:100EB000C861D4E9071001432068026822F0C0022B
:100EC00011430160D4E9030101432068826848F2BC
:100ED000FF339A4311438160D4E905010843216837
:100EE000CA6822F0FF021043C86001E00EE016E07D
:100EF0002068016841F0010101602564202084F828
:100F00003D00256384F83E50002070BD01EB410692
:100F1000431EB3FBF6F35B1CB3E70120C2E701EB12
:100F20004101401EB0FBF1F0401CC0F30B00B7E7DD
:100F3000A086010080841E0000093D0040420F0091
:100F40002DE9FF4F83B00025DDE910799A469346DD
:100F50000446DDF848800095FFF728FF064694F820
:100F60003D0020287CD11923012285492046009686
:100F700001F0DEFC0028F5D194F83C0001286FD088
:100F8000012084F83C0020680168C90703D101688A
:100F900041F0010101602068016821F400610160F5
:100FA000222084F83D00402084F83E0025646762DA
:100FB000A4F82A90608D20857248E062CDE9008611
:100FC00053465A462046049901F0BAFB00287DD1C9
:100FD000208DDFF8B491202768B1012814D00228B1
:100FE000206801681ED041F4806101602068416979
:100FF00080690090B6E020684169816900910168CC
:1010000041F400710160ADE02068016821F4806165
:10101000016072B62068416981690091016841F4FC
:1010200000710AE041F40061016072B62068416914
:1010300081690091016821F48061016062B691E0EC
:10104000032868D801280CD0022843464FF000023C
:101050004946204600960FD001F06AFCB0BB10E074
:101060008BE032464146204601F0E1FC70BB20682F
:101070000069616A08706CE001F05AFC30BB72B61E
:1010800034E02068016821F48061016072B6206854
:101090000069616A0870606A401C6062208D401EB1
:1010A0002085608D401E6085384846F2A811006892
:1010B000B0FBF1F0C0EBC00000EB80000090401EE0
:1010C000009008D020684069C04300E029E0400754
:1010D0000CD50098F3E744F8305F6773A573206977
:1010E00040F02000206162B625731AE02068016894
:1010F00041F40071016020680069616A0870606AEB
:10110000401C6062218D491E2185618D491E6185CB
:1011100062B621681BE032464146204601F087FC5A
:1011200018B1012007B0BDE8F08F20680069616A3E
:101130000870606A401C6062218D491E2185618DA6
:10114000491E618521684A69D24352070AD4096958
:101150000170606A401C6062208D401E2085608D99
:10116000401E6085208D00287FF46AAF84F83D70B2
:1011700084F83E5084F83C50D4E70220D2E70000C7
:10118000020010000000FFFF0400010030000020FA
:101190002DE9FF4F83B09A46DDE911979346044647
:1011A000DDF84080FFF702FE054694F83D00202858
:1011B0007FD11923012240492046009501F0B8FB58
:1011C000002876D194F83C00012872D0012084F8E0
:1011D0003C0020680168C90703D1016841F00101A2
:1011E00001602068016821F400610160212084F819
:1011F0003D00402084F83E0000262664C4F8248088
:10120000A4F82A90608D20852C48E062CDE9007515
:1012100053465A462046049901F010FB70B930E05D
:101220002A463946204601F035FC58B1206C042886
:1012300004D12068016841F400710160012007B009
:10124000BDE8F08F606A216800780861606A401C20
:101250006062218D491E89B22185628D521E628590
:1012600022685369DB435B070BD469B100781061D6
:10127000606A401C6062208D401E2085608D401E8B
:101280006085208D0028CBD12A463946204601F0C2
:1012900029FB0028CAD154F83D0B016841F40071C4
:1012A0000160202004F81E09E67766770020C6E773
:1012B000FFE70220C3E70000020010000000FFFF6C
:1012C00010B586B000210091019102910391006850
:1012D000104988421BD1104CA06940F00800A06161
:1012E000A069694600F0080004904FF44060009047
:1012F00012200190032003900848FFF761FCE06989
:1013000040F48000E061E06900F48000049006B0E1
:1013100010BD00000058004000100240000C0140C9
:1013200002488168027811448160704724000020DF
:10133000074810B5016841F010010160032000F07A
:1013400075F80F2000F006F800F024F8002010BD1A
:101350000020024070B50D4D04464FF47A71287894
:10136000B1FBF0F00A490968B1FBF0F000F0ECFACB
:1013700048B9102C07D200222146501E00F036F842
:1013800000206C6070BD012070BD000024000020B2
:10139000300000200C4808B5816941F001018161ED
:1013A000816901F001010091C16941F08051C16181
:1013B000C06900F0805000900448416821F0E0616D
:1013C00041F00071416008BD001002400000014082
:1013D000002809DB00F01F02012191404009800034
:1013E00000F1E020C0F8001170470000F0B40E4B8F
:1013F0001B680C46C3F30223C3F10705042D00D973
:101400000425191D072901D2002300E0DB1E012657
:1014100006FA05F1491E214099409E40761E16406D
:101420003143F0BC02F0DCBA0CED00E0064900F0FC
:10143000070208684FF6FF03184040EA0220034AFB
:1014400010430860704700000CED00E00000FA0552
:101450002DE9F0470F46050061D0434E306800F09B
:101460000700B84209D2306820F0070038433060E6
:10147000306800F00700B84251D128683B4C810722
:1014800012D5400703D5606840F4E06060602878BA
:10149000000703D5606840F4605060606068A96828
:1014A00020F0F000084360602878C00728D0686802
:1014B000012810D02168022810D0890700292EDACF
:1014C000616821F0030101436160FFF76FFC804612
:1014D00041F288390DE021688903EFE78901EDE7E2
:1014E000FFF764FCA0EB0801494502D90320BDE8E1
:1014F000F0876068696800F00C00B0EB810FEFD1F5
:10150000306800F00700B8420BD9306820F00700BF
:1015100038433060306800F00700B84201D0012045
:10152000E5E72878400705D56068E96820F4E060C1
:10153000084360602878000706D56068296920F4B0
:10154000605040EAC100606000F038F86168084A05
:10155000C1F30311515CC8400649086006480068A1
:10156000FFF7F8FE0020C2E7002002400010024012
:1015700040480008300000202800002004480549A9
:1015800000684968044AC1F30221515CC8407047B1
:10159000300000200010024050480008044805496F
:1015A00000684968044AC1F3C221515CC8407047D1
:1015B00030000020001002405048000812A185B001
:1015C0000FC98DE80F0014A0144A006804905168F8
:1015D000134801F00C03042B10D0082B0ED1C1F3DB
:1015E0008343C9031DF803000AD5516804AAC1F357
:1015F0004041515C0A4A5043B0FBF1F005B07047DE
:1016000008494843FAE700000203040506070809F1
:101610000A0B0C0D0E0F101001020000001002400A
:1016200000127A0000093D002DE9F84F040070D047
:101630002078C04DC00749D06868C0F381000128F8
:1016400007D06868C0F38100022809D16868C00328
:1016500006D52868800339D560680028E7D035E0D2
:101660006068B0F5803F0BD010B1B0F5A02F11D05D
:10167000286820F480302860286820F4802002E068
:10168000286840F480302860606890B1FFF78EFBD6
:1016900006460AE0286840F480202860F0E700BF92
:1016A000FFF784FB801B642873D828688003F7D574
:1016B0000CE0FFF77BFB064605E000BFFFF776FB7B
:1016C000801B6428F0D828688003F7D420789A4ECD
:1016D00080074FF001094FF0000839D5686810F015
:1016E0000C0F07D06868C0F38100022809D1686830
:1016F000C00306D42868800714D52069012808D1C2
:1017000010E02069B0B1C6F80090FFF74FFB074624
:1017100005E00AE1FFF74AFBC01B0228C4D828688D
:101720008007F7D52868616920F0F80040EAC10019
:1017300028600DE0C6F80080FFF738FB074604E09C
:10174000FFF734FBC01B022823D828688007F7D492
:10175000207800072CD57948A169D9B1C0F800904C
:10176000FFF724FB074604E0FFF720FBC01B02281D
:101770000FD8686A8007F7D571484FF4FA510068AE
:10178000B0FBF1F0009000BF0098411E0091FAD22A
:101790000EE080E0C0F80080FFF708FB074604E099
:1017A000FFF704FBC01B022875D8686A8007F7D4CE
:1017B0002078400760D5E8690027C00008D4E869B0
:1017C00040F08050E861E869012700F08050009007
:1017D0005C480168C90513D40168834641F48071EF
:1017E0000160FFF7E3FA824606E000BFFFF7DEFA8A
:1017F000A0EB0A0064284ED8DBF80000C005F5D540
:10180000E06801280AD008B1052813D0286A20F022
:1018100001002862286A20F0040002E0286A40F0F3
:1018200001002862E06841F2883B98B1FFF7BEFAF8
:1018300082460BE0286A40F004002862EEE700BF11
:10184000FFF7B4FAA0EB0A0159455AD8286A800775
:10185000F6D50CE0FFF7AAFA824605E0FFF7A6FAF4
:10186000A0EB0A0159454CD8286A8007F6D41FB16D
:10187000E86920F08050E861E06988B36968C1F3E5
:101880008101022944D00228C6F8608004D0FFF705
:101890008DFA044638E034E0FFF788FA074604E0A2
:1018A000FFF784FAC01B02282BD828688001F7D4E0
:1018B000206AB0F5803F05D16868A16820F4003047
:1018C00008436860D4E908010843696821F4741189
:1018D00008436860C6F86090FFF768FA044606E0BF
:1018E00025E000BFFFF762FA001B022809D828682C
:1018F0008001F7D51BE000BFFFF758FA001B022854
:1019000002D90320BDE8F88F28688001F4D40EE0E6
:101910000128F7D06868226A00F48031914204D12E
:10192000616A00F47010884201D00120EAE70020CB
:10193000E8E70000001002400000424280044242FA
:10194000300000200070004010B5401EB0F1807FD4
:1019500001D3012010BD4FF0E02460610F2160171A
:1019600002F03EF80020A06107202061002010BD99
:101970007047704710B590F83C20012A22D0012210
:1019800080F83C20CA688C6822F4407222434C687C
:1019900022F4806222430C6822F4006222430C6924
:1019A00022F4805222434C6922F400522243C96936
:1019B000002322F480420A4301684A6480F83C30E4
:1019C000002010BD022010BD70B590F83C20012A07
:1019D00026D0012480F83C40022280F83D20036894
:1019E0005A689D6822F070060A6832435A600D4BAF
:1019F00002689A4208D0B2F1804F05D00A4B9A4251
:101A000002D00A4B9A4204D1496825F08003194359
:101A1000916080F83D40002180F83C10084670BD80
:101A2000022070BD002C014000040040000800406E
:101A300010B5040003D094F83D0010B107E0012078
:101A400010BD002084F83C00204600F01FF8022062
:101A500084F83D00211D206801F0CEFC012084F8AF
:101A6000460084F83E0084F83F0084F8400084F883
:101A7000410084F8420084F8430084F8440084F86C
:101A8000450084F83D00002010BD000000B585B081
:101A9000002100910191029103911A4A01681A48AC
:101AA000914209D1816941F400618161806900F44A
:101AB0000060049005B000BD144A9142FAD1C1699A
:101AC00041F00201C161C16901F002010491816923
:101AD00041F0040181618069694600F004000490CE
:101AE000802000900220019003900948FFF768F8D9
:101AF000002211461D20FFF779FC1D20FFF768FC2E
:101B0000D8E70000002C0140001002400004004013
:101B10000008014090F83D10012901D001207047D4
:101B2000022180F83D100168CA6842F00102CA60D3
:101B300000680B49884208D0B0F1804F05D00949B0
:101B4000884202D00849884204D1816801F0070127
:101B5000062903D0016841F00101016000207047AF
:101B6000002C0140000400400008004070B504460D
:101B700090F83C00012817D0012584F83C50022041
:101B800084F83D002068826822F0770222F47F42C8
:101B900082600868502830D00DDC20284DD005DC4C
:101BA00098B310283BD148E0022070BD302844D0C3
:101BB000402834D139E0602828D0702806D0B0F50C
:101BC000805F2CD0B0F5005F29D10AE0CB68D1E965
:101BD0000121206801F053FC2068816841F0770101
:101BE00009E0CB68D1E90121206801F048FC2068B8
:101BF000816841F48041816011E0CA6849682068C9
:101C000001F0F2FC5021206807E016E0CA6849683C
:101C1000206801F0FAFC6021206801F03AFC84F8A9
:101C20003D50002084F83C0070BDCA6849682068B7
:101C300001F0DAFC40212068EFE7226801461046F7
:101C4000EBE72DE9F0410D46040003D094F83D0088
:101C500018B108E00120BDE8F081002084F83C00C4
:101C6000204600F041F8022084F83D002068816899
:101C700044F2070291438160211D206801F0BCFB02
:101C8000226890689169166A2B68AF69034340F235
:101C90000330814341EA0721A868EF6908434FF602
:101CA000FC418843E96840EA0720014328692F6A1C
:101CB000000140EA0730084369686D6926F0220692
:101CC00046EA0515294393602268906154F8460B53
:101CD0000162012004F81F09E0752076E076207784
:101CE000A0750020B7E7000000B585B00021009185
:101CF00001910291039101681A48B1F1804F1BD004
:101D0000194A914216D1C16941F00401C161C1690A
:101D100001F004010491816941F008018161806949
:101D2000694600F008000490C02000900F4800BFF2
:101D3000FEF746FF05B000BDC16941F00101C16178
:101D4000C16901F001010491816941F004018161DF
:101D50008069694600F00400049003200090044864
:101D6000E6E700000010024000080040000C0140BF
:101D70000008014070B590F83E60044690F83F506E
:101D800090F8423090F84320022021B104290ED06F
:101D9000012E1BD114E0012E18D1012B16D184F88D
:101DA0003E0084F8420001220021206820E0012D3D
:101DB0000CD1012A0AD184F83F0084F8430014E0D2
:101DC000012D03D1012B01D1012A01D0012070BDC9
:101DD00084F83E0084F83F0084F8420084F8430011
:101DE00001220021206801F03DFB0122042120682E
:101DF00001F038FB2068016841F00101016000201A
:101E000070BD704770B50446006801694FF0000569
:101E1000C943890715D4C168C943890711D4E91E8C
:101E2000016101202077206880698007204602D068
:101E3000FFF7E7FF04E000F0BFF8204600F04EF99E
:101E4000257720680169C943490717D4C168C94388
:101E5000490713D46FF00401016102202077206844
:101E6000806910F4407F204602D0FFF7CAFF04E0EB
:101E700000F0A2F8204600F031F9257720680169CA
:101E8000C943090716D4C168C943090712D46FF0C2
:101E900008010161042020772068C069800720467E
:101EA00002D0FFF7AEFF04E000F086F8204600F015
:101EB00015F9257720680169C943C90617D4C16897
:101EC000C943C90613D46FF01001016108202077BF
:101ED0002068C06910F4407F204602D0FFF791FFD0
:101EE00004E000F069F8204600F0F8F82577206853
:101EF0000169C943C90708D1C168C943C90704D1E9
:101F0000891E0161204600F039F920680169C94342
:101F1000090609D4C168C943090605D46FF08001D8
:101F200001612046FFF724FD20680169C943490685
:101F300009D4C168C943490605D46FF04001016165
:101F4000204600F0AFF920680169C94389060BD427
:101F5000C168C943890607D46FF02001016120469A
:101F6000BDE87040FFF705BD70BD000000B585B04D
:101F70000021009101910291039100680B49884270
:101F800012D10B48816941F0040181618069694681
:101F900000F0040004904FF41060009002200190C3
:101FA00003900448FEF70CFE05B000BD002C014074
:101FB0000010024000080140704770B5044690F8D8
:101FC0003C000D4601280AD0012084F83C0042B1B3
:101FD000042A18D0082A2AD00C2A4DD139E0022030
:101FE00070BD206801F05EFA2068816941F0080147
:101FF00081612068816921F0040181612068816923
:102000002A69114311E0206801F074FA206881699F
:1020100041F4006181612068816921F480618161FE
:10202000206881692A6941EA0221816124E02068EF
:1020300001F08CFA2068C16941F00801C161206893
:10204000C16921F00401C1612068C1692A69114395
:1020500011E0206801F0A6FA2068C16941F400612E
:10206000C1612068C16921F48061C1612068C169D2
:102070002A6941EA0221C161002084F83C0070BD58
:1020800010B5040003D094F83D0010B107E0012022
:1020900010BD002084F83C00204600F01EF802200D
:1020A00084F83D00211D206801F0A6F9012084F884
:1020B000460084F83E0084F83F0084F8400084F82D
:1020C000410084F8420084F8430084F8440084F816
:1020D000450084F83D00002010BD704770470000A7
:1020E00010B50446022249B104290ED0082913D0A4
:1020F00094F84100012816D0012010BD94F83E004C
:102100000128F9D184F83E200FE094F83F0001281F
:10211000F2D184F83F2008E094F840000128EBD188
:1021200084F8402001E084F841200122206801F079
:1021300099F90F492068884203D1426C42F4004269
:1021400042642068884208D0B0F1804F05D0094928
:10215000884202D00849884204D1816801F0070111
:10216000062903D0016841F001010160002010BD83
:10217000002C014000040040000800402DE9F0411F
:102180003B493C4F3C4C3D4D4FF4005688426CD18E
:102190000220FEF793FCE0600420FEF78FFC206134
:1021A0002946374800F000FED5E904010022134615
:1021B000FEF7FAFA06D1D5E9140100221346FEF71C
:1021C000F3FA01D0002200E0012231463846FEF742
:1021D000E7FDD5E90A01FEF717FB0646D5E912012E
:1021E000FEF712FB014632464FF03F4001F096FBEE
:1021F0006061D4E9030101F05DFBA061D5E90E0146
:10220000FEF7B2FA01F014FA0646E061A069FEF7A3
:102210006BFA1C490968FEF758F807466069FEF733
:1022200063FA3946FEF74BF8FEF785FA811B206208
:102230003044C4E9011010490831081F00F016FDB0
:10224000D4E9010100F028FDD5E912230EA001F028
:10225000A3FB0FA0FDF7DAFFBDE8F04182B24FF615
:10226000FF730BA10E4800F0F9B9BDE8F081000042
:10227000540200200010014000000020180100203E
:10228000700100203400002025660D0A00000000C7
:10229000646F6E677869616F646F6E670D0A000026
:1022A000280300207047704770470000F8B50268A7
:1022B00004461068D168536910F00F0F4FF0000505
:1022C00053D003F0010601F4907737435FD0C20783
:1022D00005D0CA0503D5226C42F0010222644207F0
:1022E00005D5DA0703D0226C42F00202226482078D
:1022F00005D5DA0703D0226C42F0040222640207FB
:1023000007D501F02002324303D0226C42F00802CC
:102310002264226C002A34D0800604D5880602D5B7
:10232000204601F0B3F920684069216CC0F38010A9
:10233000090700D430B3204601F090F920684169C4
:1023400049061BD5416921F040014161A06BA8B14C
:1023500058494163A06BFEF7E7FB002811D0A06B42
:10236000416B01B0BDE8F040084783060FD58B06EE
:102370000DD52046BDE8F84001F088B92046FFF7AA
:1023800093FFF8BD2046FFF78FFF2564F8BD266B4D
:102390002023012E52D1C60650D5CE064ED5106848
:1023A00050680090506940062AD5A16B08684068C3
:1023B0000004000CEAD0A68D8642E7D9E085886942
:1023C000202818D0D06820F48070D060206841693F
:1023D00021F0010141612068416921F04001416122
:1023E00084F83E3025632068C16821F01001C16087
:1023F000A06BFEF775FBA08DE18D401A81B219E04C
:10240000A08DE18D401A81B2E08D0028BED0002958
:10241000BCD0D06820F49070D0602068426922F06F
:102420000102426184F83E3025632068C26822F0D0
:102430001002C2602046FFF736FFF8BD05062BD517
:102440000D0629D594F83D002128F6D1A068B0F5F5
:10245000805F01D12069B0B1206A411C21622168EE
:1024600000784860E08C401E0004000CE084E4D159
:102470002068C16821F08001C1602068C16841F016
:102480004001C160F8BD206A0088C0F308005060B8
:10249000206A801C2062E5E74006F3D54806F1D5A6
:1024A000D168204621F04001D16084F83D3000F031
:1024B0002EF9F8BD4D36000870B5040004D094F82C
:1024C0003D00002510B106E0012070BD84F83C50AD
:1024D000204600F023F8242084F83D002068C168DD
:1024E00021F40051C160204601F02CF920680169F7
:1024F00021F4904101612068416921F02A01416184
:102500002068C16841F40051C1602564202084F82E
:102510003D0084F83E00002070BD000070B586B01C
:10252000002400940194029403942E4E03682E49D3
:10253000022003222D4DB34226D18B6943F4804300
:102540008B618B6903F4804304938B6943F004032C
:102550008B618969039201F0040104910102CDE9C4
:10256000001069462846FEF72BFB2815CDE900042C
:10257000694628460294FEF723FB002211462520D7
:10258000FEF734FF252028E0194EB34227D1CB694E
:1025900043F40033CB61CB6903F4003304938B69BC
:1025A00043F004038B618969039201F004010491F3
:1025B0000421CDE9001069462846FEF701FB0820FA
:1025C000CDE90004694628460294FEF7F9FA002294
:1025D00011462620FEF70AFF2620FEF7F9FE06B078
:1025E00070BD0000003801400010024000080140AA
:1025F0000044004090F83E30202B0ED159B152B12A
:1026000090F83C30012B08D0012380F83C300023A7
:10261000036301F0F3B80120704702207047000007
:1026200010B50068084988420DD108480078012893
:1026300009D107A001F0B0F9BDE81040012203491B
:102640000548FFF7D7BF10BD004400400000002040
:10265000796573210D0A0000280300202DE9F84355
:10266000044690F83D001F4616460D4620284CD1E2
:10267000C5B1BEB194F83C00012846D0012084F8D1
:102680003C004FF00008C4F84080212084F83D0051
:10269000FEF78CFBA6848146E684A068B0F5805FD7
:1026A00003D004E00120BDE8F883206928B12E465C
:1026B0005FF0000584F83C800EE00026FAE78021F8
:1026C000204601F0B6F8A0B9AEB116F8010B2168AA
:1026D0004860E08C401EE084E08C4B464FF00002E6
:1026E00000970028EBD14FF04001204601F0A1F8FF
:1026F00030B10320D7E735F8020BC0F30800E6E756
:10270000202084F83D000020CDE70220CBE7704771
:10271000FEE701684A69D24352050FD46FF4806224
:102720004A61002140F8301F202242738173026900
:1027300042F00402026101730120704700207047DB
:102740002DE9F84F0446006889460B9D01689846BC
:10275000174641F4806101602068016841F480718E
:10276000016000954FF0011B0022594620460A9B4C
:1027700000F0DEF84FF4007A40B120680068C00530
:1027800001D5C4F840A00320BDE8F88F216809F006
:10279000FE0008612B46284920460A9A00F0FCF802
:1027A000F0BB20684169806900902A4620460A995A
:1027B00000F070F940B1206C04283AD1206801681B
:1027C00041F40071016034E0FEB2B8F1010F09D0AC
:1027D0002168380A08612A4620460A9900F05AF909
:1027E0000028E8D1206806612A4620460A9900F0B0
:1027F00051F90028DFD12068016841F4807101603F
:1028000000950022594620460A9B00F091F80028C6
:10281000B3D1216809F0FF0040F00100086100E039
:1028200007E02B46044920460A9A00F0B5F8002834
:10283000AAD00120A8E70000020001002DE9F8431A
:10284000044600680D46DDE908970168984616467B
:1028500041F4807101604B4600224FF00111204687
:10286000009700F065F848B120680068C00502D5FF
:102870004FF4007020640320BDE8F883216805F060
:10288000FE0008613B464A461549204600F084F8A0
:1028900088B920684169806900903A4649462046D7
:1028A00000F0F8F848B1206C042804D120680168D1
:1028B00041F4007101600120DEE7F5B2B8F1010FCB
:1028C00009D02168300A08613A464946204600F09E
:1028D000E1F80028E7D1206805610020CCE700007E
:1028E0000200010070B516460D4604460DE0204674
:1028F000FFF70FFF08B1012070BD681C05D0FEF77F
:1029000055FA801BA84207D835B120684069C043FA
:102910004007ECD4002070BD002044F8300F202187
:102920006173A073216941F0200121612073E2E706
:102930002DE9F0471E4690460D460446C1F3074771
:10294000DDF8209008E0701C06D0FEF72FFAA0EB0F
:102950000900B0420FD876B12068012F18D08069E5
:1029600025EA00000004000C14D000214145EAD003
:102970000020BDE8F087002044F8300F202161736B
:10298000A073216941F02001216120730120F0E74B
:102990004069E5E70121E9E72DE9F0479A469146CC
:1029A0000E46044600254FF02008C1F3074725E0F6
:1029B00020684069C043400514D42068016841F490
:1029C0000071016021686FF480604861256384F8BC
:1029D0003D8084F83E50206C40F00400206484F870
:1029E0003C501FE0B9F1FF3F08D0FEF7DFF9A0EB44
:1029F0000A0149450CD8B9F1000F09D02068012F10
:102A000013D0806926EA00000004000C0BD0CFE749
:102A100044F8305F84F80D80A573206940F02000F1
:102A2000206125730120BDE8F0874069EAE72DE9C0
:102A3000F041002590460E460446202717E04069E5
:102A4000C043C0060CD454F8301B6FF0100048612E
:102A500044F810596777A577206A2062257717E038
:102A6000FEF7A4F9A0EB0800B04208D83EB12068F8
:102A70004169C9434906E2D40020BDE8F08144F829
:102A8000305F6773A573206940F0200020612573D3
:102A90000120F2E770B516460D4604460DE02046CB
:102AA000FFF737FE08B1012070BD681C05D0FEF7A6
:102AB0007DF9801BA84207D835B120684069C04322
:102AC0000006ECD4002070BD002044F8300F202117
:102AD0006173A073216941F0200121612073E2E755
:102AE0002DE9FF5F96B024AD044695E88301D4E953
:102AF000082308930692FDF7F9FC3A464346FDF792
:102B0000FBFCD4E90623FDF750FC07911290D4E9B1
:102B100010A35246384641460993FDF7EDFCCDE936
:102B20000001D4E90C939B464A46FDF7DFFCD4E94B
:102B30000E23CDE90B32FDF7D9FCD4E90023FDF7D4
:102B400034FC3A464346FDF7D7FCD4E90A23FDF7A7
:102B50002CFC05460E46DDE900014A465B46FDF7C2
:102B6000C8FC8B460490DDE90001DDE90B32FDF77E
:102B7000C0FC0D910090D4E902013A464346FDF7AE
:102B8000BBFC5246099BFDF710FCCDE90E01D4E9D0
:102B9000042328463146FDF708FC80468A46024653
:102BA0000B4628463146FDF719FD81460F46424641
:102BB00053460D990098FDF711FD80468A46DDE9E0
:102BC0001801079B129AFDF791FC0B914A463B4670
:102BD0001090FDF791FC079B129AFDF7E6FBC4E904
:102BE000060107911290404651460B9B109AFDF743
:102BF00083FC089B069AFDF7D8FBC4E908010498FA
:102C000006902A46334648463946FDF775FC2A4663
:102C10003346FDF76EFCC4E90A015B464846394677
:102C2000069AFDF769FC5B46049AFDF762FCC4E96D
:102C30000C012A46334640465146FDF75DFC0D9B8C
:102C4000009AFDF756FCC4E90E015B46404651462A
:102C5000069AFDF751FCDDE90E23FDF74AFCC4E9B5
:102C60001001079912981AB0BDE8F09F10B54FF403
:102C7000E15304685A429C4201DD036002E0944241
:102C800000DA02600868984201DD0B6010BD9042D6
:102C9000FCDA0A6010BD00002DE9F0410D461B4C26
:102CA000061E4FF480514FF4005705DD01222046E7
:102CB000FEF776F8002204E000222046FEF770F8C6
:102CC000012239462046FEF76BF8304601F08EFDB2
:102CD0000F4E316848634FF480414F00002D05DDF1
:102CE00001222046FEF75CF8002204E00022204684
:102CF000FEF756F8012239462046FEF751F82846DD
:102D000001F074FD31680864BDE8F081000C0140F9
:102D1000C40100202DE9F04186B08046012504A8B9
:102D2000CDE9000564242B467522D021029440464B
:102D3000FEF706F99DF81000682803D0012006B0C0
:102D4000BDE8F081002703AE8DF80C700096CDE948
:102D5000015401236B22D0214046FEF719FA0720C7
:102D60008DF80C000096CDE9015401231922D021E1
:102D70004046FEF70DFA8DF80C700096CDE901542F
:102D800001231C22D0214046FEF702FA8DF80C7078
:102D90000096CDE9015401231B22D0214046FEF7C5
:102DA000F7F90020CBE700002DE9F04F89B00C4681
:102DB00064230E2204A98DE80E0001233B22D021BA
:102DC000FEF7BEF8BDF8100040BA00B22080BDF892
:102DD000121049BA09B261808946BDF8141049BA87
:102DE00009B2A1808846BDF8161049BA0FFA81FAD7
:102DF000BDF8181049BA0FB22784BDF81A1049BAA5
:102E00000EB26684BDF81C1049BA0DB2A584FDF758
:102E100074FC6FF00D0B5A46FDF74FFCC4E902013C
:102E20004846FDF76AFC5A46FDF747FCC4E9040131
:102E30004046FDF762FC0022614BFDF7CFFBC4E981
:102E400006015046FDF750FC5E49FDF770FA5E49F9
:102E5000FDF7E3F920643846FDF74FFC5B4F002295
:102E60003B46FDF7BBFBC4E90A013046FDF745FCD4
:102E700000223B46FDF7B2FBC4E90C012846FDF7F2
:102E80003CFC00223B46FDF7A9FBC4E90E01FDF71F
:102E90008DFF4F4D2968401AFDF740FC00224D4B35
:102EA000FDF79CFB81468A46FDF780FF2860B4F958
:102EB0000010B4F90400494300FB0010FDF71DFCAD
:102EC00001F098FC002205460E461346FDF76CFC07
:102ED00010D0B4F90200FDF710FC2A463346FDF786
:102EE0007DFB01F05FFA3C4A3C4BFDF705FB0746D2
:102EF000884601E00027B846B4F90400FDF7FDFB61
:102F00000646B4F900000D464042FDF7F6FB324696
:102F10002B4601F057FB304A304BFDF7EDFADFF856
:102F2000C0B005460E4600225B46FDF73DFC06D2CA
:102F3000D4E9140100222B4BFDF74EFC0DD30022E7
:102F4000284B28463146FDF747FC0DD2D4E9140141
:102F500000225B46FDF728FC06D21D485030C0E930
:102F60000656C4E914560DE0CDE9029AD4E90C01E5
:102F7000CDE9000116482A4633465030FFF7B0FD30
:102F8000C4E91401D4E9140121F000410022154BD9
:102F9000FDF722FC03D2E16A81F00041E162CDE954
:102FA000029AD4E90A01CDE9000109483A464346AC
:102FB0000830FFF795FDC4E9120109B0BDE8F08FB4
:102FC0000029CC400000AA43B81E124200606040B5
:102FD0007800002000408F40F8C1631ADCA54C4007
:102FE000008056C0008056402DE9F04786B000248E
:102FF0002D480094019402940394816941F01001DA
:103000008161816901F010010491816941F0200121
:103010008161816901F020010491816941F004011D
:103020008161816901F004010491816941F0080125
:1030300081618069DFF8748000F008004FF400556A
:103040000490002229464046FDF7AAFEDFF8609072
:10305000002260214846FDF7A3FEDFF858A04FF498
:103060007047002239465046FDF79AFE0095022629
:1030700001250396CDE9015469464046FDF7A0FDC0
:103080006020CDE90005CDE9024669464846FDF7D6
:1030900097FD00970396CDE9015469465046FDF728
:1030A0008FFD06B0BDE8F08700100240001001401F
:1030B00000080140000C01400D4810B50B490160AB
:1030C0000C49416000214FF480428160C0E9031245
:1030D00041618161C1610162FDF76EFE002803D08C
:1030E000BDE81040FDF7E8BC10BD000000580040EE
:1030F00070010020801A060010B596B000240F94CD
:1031000010941194129413941C2168461494FDF7A2
:1031100072F8202107A8FDF76EF82C482A49C0E96B
:10312000001441F61F41C0E9024104614461846119
:10313000FEF77EFC08B1FDF7BFFC4FF480500F9006
:103140000FA92248FEF712FD08B1FDF7B5FC1F4894
:10315000FEF796FF08B1FDF7AFFC139413A91B48C7
:103160001494FEF731FC08B1FDF7A6FC6020CDE910
:1031700000040294039404940594002269461348C1
:103180000694FEF71AFF08B1FDF796FC0C2269467B
:103190000E48FEF712FF08B1FDF78EFC0794089465
:1031A00009944FF400500A94CDE90B4007A9074851
:1031B0000E94FEF7DFFB08B1FDF77EFC0348FEF737
:1031C000D5FE16B010BD0000002C0140C401002047
:1031D00010B58CB024216846FDF70DF80024154881
:1031E00009944FF080410A94C0E900144FF6FF7132
:1031F000C0E90241046184610320CDE9000401209B
:10320000CDE902040494CDE90540079469460948D4
:103210000894FEF716FD08B1FDF74EFC099409A9C4
:1032200004480A94FEF7D0FB002801D0FDF744FCC7
:103230000CB010BD0C02002010B586B00024184858
:103240000094019402940394049414490594016039
:1032500040F2CF21C0E9011440F2F311C0E9031498
:1032600080218161FEF7E4FB08B1FDF725FC4FF4F6
:103270008050009069460A48FEF778FC08B1FDF7D7
:103280001BFC049404A906480594FEF79DFB002846
:1032900001D0FDF711FC06B010BD00000004004095
:1032A0005402002010B58CB024216846FCF7A3FF1F
:1032B00000241648099414490A94C0E900144FF6F2
:1032C000FF71C0E90241046184610320CDE900047B
:1032D0000120CDE902040494CDE905400794694634
:1032E0000A480894FEF7ADFC08B1FDF7E5FB099428
:1032F00009A906480A94FEF767FB002801D0FDF7EC
:10330000DBFB0CB010BD0000000800409C02002058
:103310000C4810B50A4901604FF4E13141600021C9
:1033200081600C22C160C0E904128161C161FFF7B4
:10333000C3F8002803D0BDE81040FDF7BDBB10BDA9
:1033400000380140E40200200C4810B50A49016031
:103350004FF4E1314160002181600C22C160C0E97D
:1033600004128161C161FFF7A7F8002803D0BDE80E
:103370001040FDF7A1BB10BD004400402803002011
:10338000FEE7FEE770477047FDF7CABF30B58FB064
:1033900028216846FCF72FFF14210AA8FCF72BFF11
:1033A00001210804CDE900100024029402250491B3
:1033B000CDE907504FF4E01009906846FEF734F964
:1033C00008B172B6FEE70F20CDE90A054FF4806020
:1033D000CDE90C4002210AA80E94FEF739F8002826
:1033E00001D072B6FEE70FB030BD70470148FEF75E
:1033F00009BD000054020020F0B50268164B174CBE
:10340000174D4FF08047984205D0B84203D0A042F4
:1034100001D0A84203D122F070064A683243984294
:1034200005D0B84203D0A04201D0A84203D122F473
:103430004074CA6822434C6922F080022243026031
:103440008A68C2620A688262984201D1096901638E
:1034500001214161F0BD0000002C0140000400404A
:103460000008004010B501F01F030121046A9940D3
:103470008C430462016A9A401143016210BD10B589
:10348000846842EA032224F47F440A432243826090
:1034900010BD826822F070020A4342F00701816089
:1034A0007047000030B5026A22F001020262026A2F
:1034B0004368846924F073050C682C4322F00205EC
:1034C0008A682A430A4DA8420BD122F00805CA682F
:1034D00023F440732A434D6922F004021D438B6993
:1034E0002B434360846149684163026230BD000040
:1034F000002C014030B5026A22F010020262026A1A
:10350000436884690D6824F4E64444EA05248D6820
:1035100022F0200242EA05120B4DA8420ED1CD68DE
:1035200022F0800242EA05124D6923F4406343EA27
:1035300085038D6922F0400243EA8503436084617C
:1035400049688163026230BD002C014030B5026AD7
:1035500022F480720262036A4268C46923F4007331
:1035600024F073050C682C438D6843EA05230C4D49
:10357000A8420ED1CD6823F4006343EA05234D69C8
:1035800022F4405242EA05128D6923F4806342EA34
:1035900005124260C4614968C163036230BD000026
:1035A000002C014030B5026A22F480520262046AA3
:1035B0004268C3690D6823F4E64343EA05238D6836
:1035C00024F4005444EA0534064DA84204D14D6960
:1035D00022F4804242EA85124260C3614968016474
:1035E000046230BD002C014010B5036A046A24F067
:1035F00001040462846924F0F00444EA021423F014
:103600000A020A438461026210BD10B5036A23F006
:10361000100303628369046A23F4704343EA0232AD
:1036200024F0A00343EA01118261016210BD000091
:1036300010B5FDF759F80449C96AFCF746FEBDE824
:103640001040FDF778B800003400002010B5406A43
:103650000021C185C184FEF727FE10BD0168CA683C
:1036600022F49072CA6001684A6922F001024A613C
:10367000016B012904D10168CA6822F01002CA60F6
:10368000202180F83E1000210163704708B590F8B2
:103690003E10222901D0022008BD82684FF48053D9
:1036A0009A4201D1016921B1816A9A421BD04AB183
:1036B0000AE00268816A5268C2F308020A80816ADD
:1036C000891C08E0026972B10268526802F07F0248
:1036D0000A70816A491C8162C18D491E0904090C66
:1036E000C18503D019E002685268F1E70168CA6831
:1036F00022F02002CA600168CA6822F48072CA609F
:1037000001684A6922F001024A61202180F83E10D6
:10371000016B012903D0FEF783FF002008BD0021C3
:1037200001630168CA6822F01002CA6001680A6871
:10373000D20602D50A6849680091818DFEF7B3FD73
:10374000EBE7000070B5044600680169E26821F407
:103750004051114301612169A06808436169084330
:103760002168CA6841F20C639A430243CA60206828
:103770004169A26921F44071114341611E492068E9
:10378000884202D1FDF70AFF01E0FDF7F7FE00EBEA
:10379000C00101EB0012606864218000B2FBF0F30D
:1037A000B3FBF1F36FF018067343B2FBF0F5B2FB15
:1037B000F0F605EB8305322303EB0515B5FBF1F5B8
:1037C000B6FBF1F605F0F00505EB0615B2FBF0F6D9
:1037D000B2FBF0F0B0FBF1F06FF01802504306EBD3
:1037E000800003EB0010B0FBF1F0216800F00F0047
:1037F0002844886070BD00000038014081628285E5
:10380000C28500210164222280F83E2080F83C100D
:103810000168CA6842F48072CA6001684A6942F06D
:1038200001024A610068C16841F02001C1600020C6
:1038300070472DE9F041984617460E460446069D0E
:103840001DE0681C1BD02DB1FDF7B0FAA0EB0800FD
:10385000A84214D92068C16821F4D071C1602068E1
:10386000416921F001014161202084F83D0084F884
:103870003E00002084F83C000320BDE8F081206871
:10388000006836EA000004D00020B842D9D00020F9
:10389000F3E70120F9E700000148FEF707BD00004B
:1038A000E40200200148FEF701BD000028030020CB
:1038B000FEE7000070B5174C4618154D206CFCF75C
:1038C00013FF2946FCF701FD05463046FCF70CFFC7
:1038D00001461148FCF7F9FC2946FCF79EFCFCF771
:1038E0002AFF2064A16B42F210720144A16391424D
:1038F00002DC5242914200DA1146A163FCF7F4FE69
:10390000A16AFCF7E2FCFCF716FF206370BD000023
:103910003333333F340000209A99993E70B51646F0
:103920001C4CFCF7CFFC0546616AFCF793FF07D2FD
:1039300031466069FCF7C9FC0646284621691FE04C
:10394000206A80F000412846FCF77AFF07D2314612
:10395000E069FCF7BAFC06462846A16910E015F1BB
:10396000FF4F314606D3E068FCF7AFFC0646284619
:10397000A16805E06068FCF7A8FC064628462168B7
:10398000FCF7A3FC3146FCF748FCBDE87040FCF7AF
:10399000D2BE0000340000200FB4054B10B503A9BF
:1039A000044A029800F066F910BC5DF814FB0000B0
:1039B0004547000810010020490050EAC12018BF07
:1039C00004204A0D18BF40F0010040F2FF72B2EB34
:1039D000515F08BF40F00200012808BF0520704772
:1039E0000907090E002804DB00F1E02080F800142C
:1039F000704700F00F0000F1E02080F8141D7047C0
:103A00002DE9F0414F1E00EBC7010446D1E900014A
:103A100015461E4637F006020DD02A463346FCF7FF
:103A20006BFD7F1E04EBC703D3E90023FCF7BDFC4D
:103A300037F00602F1D1022F25D0042F13D0062F24
:103A400018BFBDE8F0812A463346FCF755FDD4E99E
:103A50000A23FCF7AAFC2A463346FCF74DFDD4E9BD
:103A60000823FCF7A2FC2A463346FCF745FDD4E9BF
:103A70000623FCF79AFC2A463346FCF73DFDD4E9C1
:103A80000423FCF792FC2A463346FCF735FDD4E9C3
:103A90000223FCF78AFC2A463346FCF72DFDD4E9C5
:103AA0000023BDE8F041FCF780BC0122FCF705BE15
:103AB000FCF77BBC024A00201107FCF7FEBD0000AA
:103AC00001FDFFFF02E008C8121F08C1002AFAD159
:103AD00070477047002001E001C1121F002AFBD18E
:103AE0007047000001490860704700001401002081
:103AF0002DE9FF5F82B00021DDE90430020DDDF821
:103B000040B0034318D044F61050A2F2FF324243B3
:103B10001514119801281FD0A5EB0B00401C5FEA7B
:103B2000000A4FF000064E4FDFF83891B04650467D
:103B300015D5CAF1000413E0119801244AA3012805
:103B400001D16FEA0B010298119AC0E90031C0E976
:103B5000024206B0BDE8F09FCBF10000DFE704466B
:103B60000021404A491842EB0450CDE9001012E010
:103B7000E00707D032463B4640464946FCF7BCFCCE
:103B80008046894632463B4610461946FCF7B4FC4F
:103B900006460F466410002CEAD1DDE90401DDE998
:103BA0000023BAF1000F06DAFCF7A6FC42464B46AA
:103BB000FCF7A2FC05E0FCF711FD42464B46FCF782
:103BC0000DFD04460E460022284BFCF705FE03D8E7
:103BD0004FF0FF30014607E00022254B20463146DA
:103BE000FCF7E3FBFCF73BFF102409E0002C0ADBA9
:103BF0000A220023FCF796FA039B30321A55641E02
:103C000050EA0102F2D1641C039AC4F11103144476
:103C1000119A012A03D0012208430DD10AE008437A
:103C200004D000204FF0110B119072E7A3EB0B05AD
:103C30006D1E0DE05B4504DD4FF0000205F101054E
:103C400004E003DA4FF00002A5F10105002AECD0F0
:103C500002981199C0E90231C0E9004579E70000F6
:103C6000000014400000F03F300000000000F0436E
:103C70000000E03F2DE9FF4F95B09B468946064680
:103C800000250FE2252877D100242746F84A012194
:103C9000059400E0044316F8013F203B01FA03F0CD
:103CA0001042F7D130782A2811D06FF02F033078E6
:103CB000A0F13002092A16D8059A44F0020402EB5A
:103CC000820203EB42021044761C0590EFE759F89C
:103CD000042B0592002A03DA504244F40054059064
:103CE00044F00204761C30782E2816D116F8010F05
:103CF00044F004042A280DD06FF02F023078A0F190
:103D00003003092B09D807EB870302EB4303C718DD
:103D1000761CF3E759F8047B761C30786C280FD0BA
:103D200006DC4C2817D068280DD06A2814D104E08E
:103D3000742810D07A280FD10DE044F400140AE062
:103D400044F4801401E044F440147278824202D1B9
:103D500004F58014761C761C307866280BD013DCB2
:103D6000582877D009DC002875D04528F6D0462899
:103D7000F4D047281AD19DE118E0632835D0642893
:103D800079D0652812D195E1702873D008DC6728B6
:103D9000F1D069286FD06E280DD06F2806D1B5E01C
:103DA00073282CD0752875D0782874D05A46179966
:103DB00090476D1C75E1C4F30250022809D0032816
:103DC0000DD0D9F8001004280DD00D6009F10409B8
:103DD00067E1D9F80010EA17C1E90052F6E7D9F80F
:103DE00000100D80F2E70D70F0E719F8041B8DF854
:103DF000001000208DF80100EA46012003E059F888
:103E000004AB4FF0FF3061074FF0000102D40DE02A
:103E100008F101018846B9420FDA8045F8DB1AF84B
:103E200008100029F4D108E008F101018846814218
:103E3000FADB1AF808100029F6D105985B46A0EBCA
:103E4000080721463846179A00F094FA284400EBF8
:103E5000080507E04DE029E10DE01AF8010B5A468C
:103E600017999047B8F10108F7D25B4621463846CA
:103E7000179A13E142E00A220092C4F302524FF073
:103E8000000A022A08D059F804CB032A4FEAEC7141
:103E90000AD00DE029E02AE009F1070121F007022C
:103EA000F2E802C1914609E00FFA8CFC4FEAEC718E
:103EB000042A03D14FFA8CFC4FEAEC71002907DA8F
:103EC0000A460021DCF1000C61EB02012D2202E028
:103ED000220504D52B228DF80420012203E0E207FD
:103EE00001D02022F7E7904659E00A2102E0102293
:103EF0000DE010214FF0000A00910BE010224FF06E
:103F0000000A44F004040827009203E008224FF05E
:103F1000000A0092C4F30252022A05D059F804CBD9
:103F20000021032A08D009E009F1070121F0070266
:103F3000F2E802C1914605E01FFA8CFC042A01D187
:103F40000CF0FF0C4FF00008220728D5702806D08F
:103F5000009B83F0100353EA0A0305D00EE04022D1
:103F60008DF80420012208E05CEA010206D030222C
:103F70008DF804208DF8050002229046009B83F006
:103F8000080353EA0A030AD15CEA010201D162077D
:103F900005D530228DF804204FF001087F1E5828E7
:103FA00004D034A003900EA802900DE036A0F9E7EB
:103FB00053466046009AFCF7B5F884460398825C45
:103FC0000298401E029002705CEA0100F0D1029853
:103FD00006A9081A00F1200A600702D524F48034EB
:103FE00000E00127574502DDA7EB0A0000E00020B2
:103FF00000EB0A01009005984144401A0590E00347
:1040000006D45B462146179A059800F0B3F905449B
:10401000002706E001A85A46C05D179990476D1C1D
:104020007F1C4745F6DBE0030CD55B462146179A1B
:10403000059800F09FF9054404E030205A4617998E
:1040400090476D1C0099481E00900029F5DC08E09F
:10405000029802995A460078491C02911799904794
:104060006D1CBAF10001AAF1010AF1DC65E1000062
:10407000092801003031323334353637383961623E
:104080006364656600000000303132333435363702
:1040900038394142434445460000000000F058F9D9
:1040A0000544761C307800287FF4ECAD19B0284622
:1040B000BDE8F08F620700D4062709F1070222F05D
:1040C000070CFCE80223E14603F000485FEA080C15
:1040D00002D00FF2702C0DE05FEA045C02D50FF203
:1040E000682C07E05FEAC47C02D00FF2602C01E08C
:1040F000AFF2700C4FF0FF3823F00043CDF850C002
:1041000065280CD006DC452809D046281DD0472854
:104110003DD13DE0662818D067287ED138E00021E7
:10412000112F01DB112000E0781CCDE9000106A968
:104130000EA8FFF7DDFCDDE90F010E9A03910021C7
:10414000009207F1010A04914DE04FF00040009702
:10415000CDE9011006A90EA8FFF7CAFCDDE90F02A0
:1041600003920E9B11990022DDF80CA0009304929B
:1041700011B9791C00EB010AB7EB0A0004D4C0F1B5
:10418000FF3007F1010A0490AAEB0700019044E018
:10419000012F00DA01270021112F01DD112000E09D
:1041A0003846CDE9000106A90EA8FFF7A1FCDDE91C
:1041B0000F010E9A0391002104910092BA46210743
:1041C0000CD40399514500DA8A46BAF1010F05DD96
:1041D000009AAAF10101515C302908D0B84202DAF4
:1041E00010F1040F06DA0121CDE9011015E0AAF162
:1041F0000101E9E7002805DC049901440491AAEBD8
:10420000000102E0411C514500DD8A460499401A34
:10421000401C01904FF000400290200704D4019808
:10422000504501DBCDF8048000208DF84F00029846
:104230000DF14F07B0F1004F25D02B200E900298C2
:104240004FF0020800280CDA404202902D200E9018
:1042500007E00A210298FCF707FB3031029007F8CB
:10426000011DB8F10001A8F10108F2DC0298002854
:10427000EFD1791E0E980870307800F0200040F0E1
:10428000450007F8020D12A8C01B00F1070814989A
:10429000007800B1012000EB0A01019801EBE07108
:1042A00005984144401A401E0590E00306D45B4641
:1042B0002146179A059800F05DF805441498007897
:1042C00018B15A46179990476D1CE00324D55B46F8
:1042D0002146179A059800F04DF805441CE0049813
:1042E000002807DBDDE90301884203DD0098405C1C
:1042F000179901E0179930205A469047049805F124
:104300000105401C04900198401E019004D12E200C
:104310005A46179990476D1CBAF10001AAF1010A9B
:10432000DDDC05E017F8010B5A46179990476D1C24
:10433000B8F10001A8F10108F4DC5B462146179AA8
:104340000598ABE62D0000002B00000020000000C7
:104350002DE9F041044600251E461746880404D482
:1043600005E039462020B0476D1C641EF9D528466B
:10437000BDE8F0812DE9F041044600251E46904637
:10438000C80301D5302700E02027880404D505E0C4
:1043900041463846B0476D1C641EF9D52846BDE835
:1043A000F08100002DE9F84F04460D4621F0004051
:1043B00000917349814211DC7249884201DC06D1C7
:1043C0002CB120462946BDE8F84FFFF76EBB6E487A
:1043D000002DCCBF6D496E49BDE8F88F6D49814213
:1043E00011DD6D498142D8BF4FF0FF366DDD2046AB
:1043F0002946FFF7E1FA042808BFFFF75BFB2046D8
:104400002946BDE8F88F6549654F25F00045814292
:1044100033DD6449814219DD002632464FF0804386
:1044200020462946FBF7C1FF80468A4601222046E6
:104430002946FCF742F900223B46FCF757F8424672
:104440005346FCF7CBF804460D463EE00126002219
:10445000BA463B4620462946FBF7A7FF80460F4653
:104460000022534620462946FCF740F842463B4688
:10447000FCF7B4F804460D4627E04B4981421BDDAA
:10448000DFF828A102260022534620462946FCF7E1
:1044900033F800223B46FBF788FF80460F46002298
:1044A000534620462946FCF721F842463B46FCF796
:1044B00095F804460D4608E0032622462B460020C8
:1044C0003B49FCF78BF804460D4622462B46104626
:1044D0001946FCF711F88B46824602460B46FCF75C
:1044E0000BF807460246334888460B4606217844B7
:1044F000FFF786FA52465B46FBF7FEFF82462E48E0
:104500008B463A46434605217844FFF779FA3A4606
:104510004346FBF7F1FF02460B46002E5046594634
:104520000CDAFBF742FF22462B46FBF7E5FF01B012
:1045300022462B46BDE8F04FFBF7DBBFFBF735FF0C
:1045400022462B46FBF7D8FF1C4A7A4402EBC603EF
:10455000D3E90023FBF7CAFF22462B46FBF7C6FF31
:10456000174A7A4402EBC603D3E90023FBF7C1FFE5
:10457000009A002AB8BF81F00041BDE8F88F000022
:10458000000010440000F07F182D4454FB21F93F37
:10459000FB21F9BF0000DC3F0000203E0000F33F9C
:1045A0000000F03F0000E63F008003400000F83FBD
:1045B0000000F0BFCE0300008C0300002A030000BF
:1045C000F20200002DE9F04D9446CCF1000423F0F6
:1045D00000464CEA0404524F46EAD4749A46884690
:1045E00021F00042BC4206D8454240EA050442EAB6
:1045F000D474BC4204D9BDE8F04D6246FFF758BA06
:10460000AAF14055A5F17F6555EA0C040BD00224B0
:1046100004EAAA74434DDFF810E144EAD87452EA80
:10462000000B04D00CE0BDE8F04DFFF7BBBE002C42
:1046300014BF012CBDE8F08D022C30D0032C32D0F9
:1046400056EA0C0B0AD0BE4220D1BA4209D126F05C
:10465000804622F080423346114617E000291ADBDB
:1046600025E0DFF8C8B0FB44002C04BFDBE9000103
:10467000BDE8F08D012C02BFDBE9000181F00041B3
:10468000BDE8F08D022C0AD0032C0CD0BA4212D116
:10469000B8F1000F0BDA23482549BDE8F08D284614
:1046A0002449BDE8F08D28467146BDE8F08D1D48CF
:1046B0002149BDE8F08D921B12153C2AC4BF194850
:1046C0001D490EDCBAF1000FBEBF12F13C0F0020F5
:1046D000014606DB6246FBF781FF21F00041FFF750
:1046E00061FE002C08BFBDE8F08D012C04BF81F0F5
:1046F0000041BDE8F08D114A114B022C07D0FBF7A9
:10470000F5FE2A46BDE8F04D0A4BFBF7EFBEFBF77E
:10471000EDFE2A46BDE8F04D064BFBF7EABE000071
:104720000000F07F182D4454FB2109C086020000D0
:10473000FB21F9BFFB210940FB21F93F075C143342
:1047400026A6A13C13B54FF0FF330122694602486B
:10475000FDF784FF00981CBD28030020FCF7E8FD4E
:10476000FEF714FEFEF740FCFEF7C6FCFEF730FD38
:10477000FEF798FDFEF7E8FDFEF75EFDFEF7C8FDCB
:10478000FEF79AFC3C211148FDF7F4FA3C21104851
:10479000FDF7F0FA00210F48FDF7A2FC0C210D48AF
:1047A000FDF79EFC0C48FEF7B5FA0128FAD00B483D
:1047B000FDF7B0F9012220210948FCF7F1FA0122A6
:1047C00008490948FDF716FFFEE700000C0200202B
:1047D0009C020020C401002070010020540200202F
:1047E000000801400000002028030020002800DC11
:1047F000404270472DE9F04106460F46FCF7DEF8CF
:10480000041E0D4618BF0120284320F00040C0F1CF
:104810007F6000F1E040C00F0ED0301C18BF0120B7
:10482000384320F00040C0F17F6000F1E040C00F4D
:1048300004BF0120FFF756F920462946BDE8F08164
:104840000000000000000000010203040607080940
:1048500000000000010203044FBB610567ACDD3FAF
:10486000182D4454FB21E93F9BF681D20B73EF3F97
:10487000182D4454FB21F93FE2652F227F2B7A3C0F
:10488000075C143326A6813CBDCBF07A8807703CC8
:10489000075C143326A6913CC4EB98999999C9BF3B
:1048A000711623FEC671BCBF6D9A74AFF2B0B3BF70
:1048B0009AFDDE522DDEADBF2F6C6A2C44B4A2BF30
:1048C0000D5555555555D53FFF8300922449C23F9C
:1048D0006E204CC5CD45B73F513DD0A0660DB13FD0
:1048E000EB0D76244B7BA93F11DA22E33AAD903FE2
:1048F000000000000000000018490008000000202F
:1049000018010000C43A0008304A000818010020CD
:1049100058060000D43A0008000000000000000023
:104920000000000000000000000000000000000087
:104930000000000000000000000000000100000076
:1049400010000000000000000024F40000004844B3
:1049500000000000000016440000000000000000FD
:104960000000000000000000000000000000804087
:104970000000804000000000000000000000000077
:104980000000000000000000000000000000000027
:104990000000000000000000000000E04D62503FF9
:1049A000000000C07493683F000000E051B89E3FD3
:1049B00000000000000000000000000000000000F7
:1049C00000000000000000000000000000000000E7
:1049D00000000000000000000000000000000000D7
:1049E000000000E04D62503F000000C07493683F3B
:1049F000000000E051B89E3F0000000000000000F1
:104A000000000000000000000000000000000000A6
:104A10000000000000000000000000000000000096
:104A20000000000000000000000000000000000086
:04000005080000ED02
:00000001FF
